:10000000752A08752B08752C08752D10D243D24C13
:0E001000852820852921D23A12002112002DC8
:0F001E000200B4758901C28D758A00758CF022BD
:10002D00D28C227928872209872319A72009A72195
:10003D0009852180852090E760298720098721196E
:0F004D00A72209A72309852380852290E770D673
:0E005C00308D22120021A72009A721852180C6
:0F006A00852090120081308D0E120021A72209EF
:0F007900A7238523808522908528208529212291
:1000880075270122C3E52003F5202275270222C324
:10009800E52023F5202275270422C3E52103F52155
:0F00A8002275270822C3E52123F5212275A00F19
:0E00B70020A11375A0F020A60511930200E30E
:0E00C50020A41611880200E375A0F020A510FB
:1000D30075A00F20A005119E0200E320A20211A922
:1000E300303805118C0201003039051197020100E7
:0F00F300303A0511A2020100303B0211AD11306D
:030102000200B444
:00000001FF
