:0F000000752A08752B08752C10752D08752E089C
:0F000F00752F02D243D24C852820852921D23A61
:0E001E001200271200330200A3758901C28D63
:10002C00758AEB758CFF22D28C22308D371200270B
:0F003C0079288722098723E52019A720E52109C4
:0F004B00A72109852180852090E760198720096A
:10005A00872119A722E52209A72309E523852380F9
:10006A00852290E770CE85282085292122752701CF
:10007A0022C3E52003F5202275270222C3E52023A7
:0E008A00F5202275270422C3E52103F521226B
:0E00980075270822C3E52123F5212275A00F4C
:0E00A60020A11375A0F020A60511820200D241
:0E00B40020A41611770200D275A0F020A5102E
:1000C20075A00F20A005118D0200D220A202119866
:1000D200303805117B0200EF30390511860200EF3E
:0F00E200303A0511910200EF303B02119C1136AC
:0300F1000200A367
:00000001FF
