:10000000752A08752B20752C08752D40D243D24CCB
:0E001000852820852921D23A12002112002DC8
:0F001E000200C7758901C28D758A00758CFF229B
:10002D00D28C22792AE7600E0909B520F819E70963
:10003D00B521F21201187928872209872319A720E3
:10004D0009A72109852180852090E760298720094E
:10005D00872119A72209A72309852380852290E7E7
:10006D0070D6308D22120021A72009A7218521806D
:0F007D00852090120094308D0E120021A72209C9
:0F008C00A723852380852290852820852921227E
:10009B0075270122C3E52003F5202275270222C311
:1000AB00E52023F5202275270422C3E52103F52142
:0F00BB002275270822C3E52123F5212275A00F06
:0E00CA0020A11375A0F020A60511A60200F6D5
:0E00D80020A416119B0200F675A0F020A510C2
:1000E60075A00F20A00511B10200F620A20211BCD6
:1000F600303805119F02011330390511AA02011388
:0F010600303A0511B5020113303B0211C0113020
:100115000200C77580FF7590FF758000759000001F
:0201250080F167
:00000001FF
