:10000000752A08752B08752C10752D08D243D24C13
:0E001000852820852921D23A12002112002DC8
:0F001E000200A6758901C28D758AEB758CFF22D1
:10002D00D28C2285258085249022308D3912002195
:0F003D0075240075250079288722098723E5207F
:10004C00422419A720E521422509A72109E76017B9
:10005C00872009872119A722E522422409A7230911
:0E006C00E5234225E770D28528208529212230
:10007A0075270122C3E52003F5202275270222C332
:10008A00E52023F5202275270422C3E52103F52163
:0F009A002275270822C3E52123F5212275A00F27
:0E00A90020A11375A0F020A60511850200D538
:0E00B70020A416117A0200D575A0F020A51025
:1000C50075A00F20A00511900200D520A202119B5A
:1000D500303805117E0200F230390511890200F22F
:0F00E500303A0511940200F2303B02119F11379F
:0500F40011300200A61E
:00000001FF
